:020000040000FA
:1000000010020020D90000007B02000071020000F5
:1000100000000000000000000000000000000000E0
:10002000000000000000000000000000BD02000011
:1000300000000000000000007D020000C10200007E
:100040002F03000079020000B702000059010000F0
:10005000B50200005B0100005D0100005F010000CF
:100060006101000051010000530100005501000032
:1000700045010000470100002B0300002D03000094
:10008000690200006B0200006D0200006F020000B8
:100090004B0100004D0100004F01000075020000FF
:1000A00077020000B9020000BB0200002503000037
:1000B0002703000029030000490100005701000048
:1000C0000448854600F02CF800480047A9030000CA
:1000D000C046C0461002002004488047044800473C
:1000E000FEE7FEE7FEE7FEE7FEE7FEE7E9020000C7
:1000F000C100000030B50B4601460020202201243B
:1001000009E00D46D5409D4205D31D469540491B4B
:100110002546954040191546521E002DF1DC30BD94
:10012000064C0125064E05E0E36807CC2B430C3C4A
:1001300098471034B442F7D3FFF7C6FFF803000026
:100140001804000070477047704770477047704749
:1001500070477047704770477047704770477047E7
:10016000704700004A68002A04D1C2690B681A432C
:10017000C26174E0C2690B689A43C26110234A6885
:100180001A40102A4ED102680B681A4302604A686E
:10019000112A07D102690B681A430261C2680B6811
:1001A0009A43C2604A68122A07D1C2680B681A4390
:1001B000C26002690B689A430261426A0B689A4303
:1001C0004262826A0B689A438262C26A0B689A43EF
:1001D000C262026B0B689A43026381238A681A40E9
:1001E000812A03D1426A0B681A43426282238A68D9
:1001F0001A40822A03D1826A0B681A4382628423DE
:100200008A681A40842A03D1C26A0B681A43C26200
:1002100088238A681A40882A21D1026B0B681A4306
:1002200002631CE002680B689A4302604A68202A55
:1002300004D142680B689A43426003E042680B684D
:100240001A434260064BCA689A4204D182680B681E
:100250001A43826003E082680B689A4382607047A9
:10026000FFFF000001667047704770477047704796
:1002700000BFFEE770477047704770477047000047
:10028000C1029322520212881143084A9161114619
:100290004968074A1143054A516000BF034989690B
:1002A0000122D20311409142F8D170470000014071
:1002B00001005A5A704770477047704770470000F6
:1002C00003480068034909784018014908607047ED
:1002D000040000200C00002001480249086070471B
:1002E00000127A000000002000B5FFF7F5FF93210F
:1002F000490209884805400D09498969C90AC902A6
:100300000143074A91619321490249888805800D7C
:100310001146096A890A89020143116200BD000081
:100320000000014070477047704770477047704742
:1003300002E008C8121F08C1002AFAD170477047AE
:10034000002001E001C1121F002AFBD1704700000C
:1003500070B50546114812494861002088610520A2
:10036000086110E000200E4988617D21C9000D4818
:100370000068FFF7BFFE012109060C1A00BF0848FC
:100380008069A042FBD828466D1E0028EAD10448A7
:100390000069400840000249086170BDFFFFFF008E
:1003A00000E000E0000000201FB50520FFF768FF17
:1003B0000E48006B402108430C49086380200290DE
:1003C00020200190000200900948039069460948E6
:1003D000FFF7C8FE08E0012149030648FFF742FF86
:1003E00019204001FFF7B4FFF5E7000000000140CD
:1003F000FFFF000000080048180400000000002073
:10040000100000003003000028040000100000204D
:10041000000200004003000000127A00000000000B
:080420000400000001000000CF
:04000005000000C136
:00000001FF
